:100000000C94B1000C94D9000C94D9000C94D90034
:100010000C94D9000C94D9000C94D9000C94D900FC
:100020000C94D9000C94D9000C94D9000C94920330
:100030000C94D9000C94D9000C94D9000C94D900DC
:100040000C9448030C94D9000C9416030C94F00201
:100050000C94D9000C94D9000C94D9000C94D900BC
:100060000C94D9000C94D9000904400427040E0410
:100070002C04330437043D04000000002400270052
:100080002A0000000000250028002B0000000000CE
:1000900023002600290004040404040404040202CA
:1000A0000202020203030303030303030202010229
:1000B00004081020408001020408102001020408F6
:1000C0001020408040800000000800020100000372
:1000D0000407000000000000000000000000007E97
:1000E000306D79335B5F707F7B771F4E3D4F4700EC
:1000F0000000000000000000000000000000000000
:10010000002200000000204E780000040100007E64
:10011000306D79335B5F707F7B0000000000000072
:10012000771F4E3D4F475E373038000E00157E6713
:1001300073055B0F3E0000003B004E007800080294
:10014000771F0D3D6F475E171038003000151D6793
:1001500073055B0F1C0000000000000000000000A1
:10016000430411241FBECFEFD8E0DEBFCDBF22E095
:10017000A4E2B1E001C01D92A836B207E1F711E098
:10018000A0E0B1E0E4E0F1E102C005900D92A432FC
:10019000B107D9F710E0C1EBD0E004C02197FE0110
:1001A0000E940F08C03BD107C9F70E9472040C944B
:1001B00080080C940000CF92DF92EF92FF920F9391
:1001C0001F93CF93DF936C017A018B01C0E0D0E0E5
:1001D000CE15DF0589F0D8016D918D01D601ED9125
:1001E000FC910190F081E02DC6010995892B11F455
:1001F0007E0102C02196ECCFC701DF91CF911F9104
:100200000F91FF90EF90DF90CF900895FC01918DBA
:10021000828D981761F0828DDF01A80FB11D5D9668
:100220008C91928D9F5F9F73928F90E008958FEFD6
:100230009FEF0895FC01918D828D981731F0828D8A
:10024000E80FF11D858D90E008958FEF9FEF0895E1
:10025000FC01918D228D892F90E0805C9F4F821B45
:1002600091098F739927089582E891E00E942801EF
:1002700021E0892B09F420E0822F0895FC01848D70
:10028000DF01A80FB11DA35ABF4F2C91848D90E0C0
:1002900001968F739927848FA689B7892C93A0899B
:1002A000B1898C9180648C93938D848D981306C052
:1002B0000288F389E02D80818F7D80830895EF92FD
:1002C000FF920F931F93CF93DF93EC0181E0888F10
:1002D0009B8D8C8D981305C0E889F989808185FDF7
:1002E00024C0F62E0B8D10E00F5F1F4F0F731127E8
:1002F000E02E8C8DE8120CC00FB607FCFACFE8890F
:10030000F989808185FFF5CFCE010E943E01F1CFB2
:100310008B8DFE01E80FF11DE35AFF4FF0820B8F2A
:10032000EA89FB898081806207C0EE89FF8960834A
:10033000E889F98980818064808381E090E0DF91A1
:10034000CF911F910F91FF90EF900895CF93DF937E
:10035000EC01888D8823C9F0EA89FB89808185FDBD
:1003600005C0A889B9898C9186FD0FC00FB607FC1E
:10037000F5CF808185FFF2CFA889B9898C9185FF5F
:10038000EDCFCE010E943E01E7CFDF91CF910895DE
:100390000F931F93CF93DF9382E891E00E9428018F
:1003A000892BE1F000916E0110916F01E801219617
:1003B000CF73DD2782E891E00E9406012091700151
:1003C00030917101C217D30739F3F801E25DFE4F96
:1003D0008083D0936F01C0936E01DECFDF91CF9108
:1003E0001F910F9108950E94340181110C94C8014E
:1003F0000895833081F028F4813099F08230A1F0A3
:1004000008958730A9F08830B9F08430D1F4809114
:1004100080008F7D03C0809180008F778093800063
:10042000089584B58F7702C084B58F7D84BD08950B
:100430008091B0008F7703C08091B0008F7D809352
:10044000B0000895CF93DF93282F30E0F901EA53ED
:10045000FF4F8491F901E255FF4FD491F901EA561B
:10046000FF4FC491CC2391F081110E94F901EC2F30
:10047000F0E0EE0FFF1FE457FF4FA591B491EC9110
:10048000ED2381E090E021F480E002C080E090E084
:10049000DF91CF9108951F93CF93DF93282F30E002
:1004A000F901EA53FF4F8491F901E255FF4FD491CE
:1004B000F901EA56FF4FC491CC23C9F0162F8111E0
:1004C0000E94F901EC2FF0E0EE0FFF1FEE57FF4FF7
:1004D000A591B4918FB7F894111105C09C91ED2F9F
:1004E000E095E92302C0EC91ED2BEC938FBFDF91F7
:1004F000CF911F910895CF93DF9390E0FC01E255D7
:10050000FF4F2491FC01EA56FF4F8491882361F14B
:1005100090E0880F991FFC01E858FF4FC591D491D6
:10052000FC01EE57FF4FA591B491611109C09FB72F
:10053000F8948881209582238883EC912E230BC028
:10054000623061F49FB7F8943881822F80958323BD
:100550008883EC912E2B2C939FBF06C08FB7F89405
:10056000E8812E2B28838FBFDF91CF9108958330B0
:10057000910528F0880F991F04970197F1F70895C6
:100580002FB7F89460912A0170912B0180912C0172
:1005900090912D012FBF0895CF93DF93009779F0AD
:1005A000FC0101900020E9F73197AF01481B590B7E
:1005B000BC0182E891E00E94DB00EC0102C0C0E0D7
:1005C000D0E042E050E064E171E082E891E00E9416
:1005D000DB008C0F9D1FDF91CF9108950E941508BD
:1005E0001F920F920FB60F9211242F933F934F93A8
:1005F0005F936F937F938F939F93AF93BF93EF938B
:10060000FF9382E891E00E943E01FF91EF91BF913C
:10061000AF919F918F917F916F915F914F913F919A
:100620002F910F900FBE0F901F9018951F920F9251
:100630000FB60F9211242F938F939F93EF93FF93F5
:10064000E0919201F09193018081E0919801F09105
:10065000990182FD12C0908180919B018F5F8F7301
:1006600020919C01821751F0E0919B01F0E0EE5740
:10067000FE4F958F80939B0101C08081FF91EF9188
:100680009F918F912F910F900FBE0F901F901895F3
:100690001F920F920FB60F9211242F933F938F93B7
:1006A0009F93AF93BF9380912A0190912B01A091CA
:1006B0002C01B0912D013091290126E0230F2D3717
:1006C00020F40296A11DB11D05C029E8230F039651
:1006D000A11DB11D2093290180932A0190932B0124
:1006E000A0932C01B0932D018091250190912601BA
:1006F000A0912701B09128010196A11DB11D809301
:10070000250190932601A0932701B0932801BF9162
:10071000AF919F918F913F912F910F900FBE0F90AE
:100720001F9018951F920F920FB60F9211242F93BE
:100730003F934F935F936F937F938F939F93AF9369
:10074000BF93CF93EF93FF93F894809170019091B2
:10075000710120916E0130916F012817390779F1ED
:10076000FC01E25DFE4FC08101968F739927909343
:10077000710180937001E0912401E11136C0C63708
:1007800010F0C83769F48091810190E0FC01E458D1
:10079000FE4FC083019683709927809381010FC01B
:1007A000C63701F588E780937C0180937D018093B3
:1007B0007E0180937F0110928001109281017894D4
:1007C000FF91EF91CF91BF91AF919F918F917F91C9
:1007D0006F915F914F913F912F910F900FBE0F90AE
:1007E0001F901895C0932401EACFC63769F08E2F69
:1007F00090E0FC01E757F109E830F10508F040C04E
:10080000EC5CFF4F0C940F08EB3731F148F5E737FC
:1008100019F4C093800134C0EA3791F56C2F80E061
:1008200090E00E942208C53608F0C4E62C2F30E084
:10083000A0EDB7E00E94710824E630E040E050E00F
:100840000E943008309336022093350219C0C4301C
:10085000B8F4C093810114C0C068C0937C0110C07B
:10086000ED3729F040F4C068C0937D0109C0C0682D
:10087000C0937E0105C0EE3719F4C068C0937F01B4
:10088000109224019CCFE2E8F1E01382128288EEFC
:1008900093E0A0E0B0E084839583A683B78388E0EB
:1008A00091E09183808385EC90E09587848784EC48
:1008B00090E09787868780EC90E0918B808B81EC2D
:1008C00090E0938B828B82EC90E0958B848B86EC0E
:1008D00090E0978B868B118E128E138E148E109251
:1008E00067020895789484B5826084BD84B5816080
:1008F00084BD85B5826085BD85B5816085BD8091EB
:100900006E00816080936E00109281008091810062
:10091000826080938100809181008160809381005A
:10092000809180008160809380008091B10084601C
:100930008093B1008091B00081608093B00080917D
:100940007A00846080937A0080917A00826080933C
:100950007A0080917A008E7F80937A0080917A006D
:10096000806880937A001092C10080E090E00E943D
:100970001A08853630F064E680E090E00E94220894
:1009800084E6282F30E0A0EDB7E00E94710824E64D
:1009900030E040E050E00E9430083093360220936F
:1009A000350288E780937C0180937D0180937E01EE
:1009B00080937F01109280011092810110926F014B
:1009C00010926E01109271011092700124E0209338
:1009D0003402C0E1C0932402B1E1B0932502A3E048
:1009E000A09326022093270289E08093280282E0C8
:1009F00080932902F8E0F0932C02EEE0E0932D02C0
:100A000096E090932E027FE070932F0267E160934F
:100A1000300287E08093310255E05093320246E184
:100A20004093330280932A0290932B0231E030935B
:100A30001F02309320021092210210922202309362
:100A40002302C0933702B0933802A0933902209357
:100A50003A02F0933B02E0933C0290933D02709384
:100A60003E0260933F0280934002509341024093C4
:100A70004202C0E080913402C81788F40C2F10E0C5
:100A8000015E1D4F60912102F801808D0E944B0292
:100A900061E0F801808D0E947B02CF5FEBCFCBE35A
:100AA000D2E01C2F185F7E016091230289910E9481
:100AB0004B0261E0F70180810E947B021C13F3CF9F
:100AC000809129028F3FA1F0609121020E944B0288
:100AD00061E0809129020E947B0260912302809153
:100AE0002B020E944B0261E080912B020E947B024C
:100AF000809128028F3FA1F0609121020E944B0259
:100B000061E0809128020E947B0260912302809123
:100B10002A020E944B0261E080912A020E947B021D
:100B200089E0809381008FEF90E09093890080931B
:100B30008800C2E0C0936F00E0919201F0919301B0
:100B4000C083E0918E01F0918F011082E0919001BD
:100B5000F091910180E1808310929A01E0919601D9
:100B6000F091970186E08083E0919401F0919501E6
:100B7000808180618083E0919401F0919501808172
:100B800088608083E0919401F09195018081806874
:100B90008083E0919401F091950180818F7D808325
:100BA00062E082E10E947B0262E083E10E947B02BC
:100BB000789481E080937C01C0937D0183E08093F1
:100BC0007E0184E080937F0181EDE82E87E0F82E9E
:100BD000B0908001D1E0CB2CD12C0D2F10E0809172
:100BE000340290E0801791070CF407C1D23089F0ED
:100BF00038F4D130C9F4609120028091240212C0EF
:100C0000D33061F0D43081F46091200280912702CA
:100C100009C0609120028091250204C060912002E9
:100C2000809126020E944B02F801E558FE4FC081D8
:100C3000C7FF33C0C0FF06C06091220280912C0222
:100C40000E944B02C1FF06C06091220280912D02DA
:100C50000E944B02C2FF06C06091220280912E02C8
:100C60000E944B02C3FF06C06091220280912F02B6
:100C70000E944B02C4FF06C06091220280913002A4
:100C80000E944B02C5FF06C0609122028091310292
:100C90000E944B02C6FF3EC037C0EC2FF0E0E1528D
:100CA000FF4FC491C6FF06C06091220280912C02C2
:100CB0000E944B02C5FF06C06091220280912D0266
:100CC0000E944B02C4FF06C06091220280912E0256
:100CD0000E944B02C3FF06C06091220280912F0246
:100CE0000E944B02C2FF06C0609122028091300236
:100CF0000E944B02C1FF06C0609122028091310226
:100D00000E944B02C0FF06C0609122028091320215
:100D10000E944B0201501109C60102C095958795AA
:100D20000A95E2F780FF08C0D53030F460912202C6
:100D3000809133020E944B028091350290913602DD
:100D400001960E94B7026091230280912C020E94BA
:100D50004B026091230280912D020E944B02609110
:100D6000230280912E020E944B0260912302809107
:100D70002F020E944B0260912302809130020E9458
:100D80004B0260912302809131020E944B026091DC
:100D90002302809132020E944B02609123028091D3
:100DA00033020E944B02D23089F038F4D130C9F4BA
:100DB000609121028091240212C0D33061F0D430BE
:100DC00081F4609121028091270209C06091210283
:100DD0008091250204C060912102809126020E9428
:100DE0004B0280913502909136029701281B390BF6
:100DF000C9010E94B702DF5FF0CE809129028F3FC8
:100E000029F4909128029F3F09F443C0B4FE0AC020
:100E1000609120020E944B026091220280912B027D
:100E20000E944B02B5FE0CC0609120028091280206
:100E30000E944B026091220280912A020E944B0282
:100E4000809135029091360201960E94B70260911E
:100E50002102809129020E944B026091230280911D
:100E60002B020E944B0260912102809128020E9475
:100E70004B026091230280912A020E944B028091D2
:100E8000350290913602F701E81BF90BCF010E9461
:100E9000B7020E94C80183E10E94220220917B01D7
:100EA00030E08217930771F10E94C0020091770130
:100EB000109178012091790130917A01DC01CB0108
:100EC000801B910BA20BB30B85369105A105B105D3
:100ED000C8F00E94C00260937701709378018093FC
:100EE000790190937A0183E10E94220221E0892B0B
:100EF00009F420E020937B01211104C087E191E0F7
:100F00000E94CC0283E10E942202892BB1F40E944C
:100F1000C002009177011091780120917901309100
:100F20007A01DC01CB01801B910BA20BB30B8E3439
:100F30009140A105B10508F054C082E10E9422024F
:100F40002091760130E08217930771F10E94C00270
:100F5000009172011091730120917401309175011B
:100F6000DC01CB01801B910BA20BB30B85369105E5
:100F7000A105B105C8F00E94C00260937201709390
:100F80007301809374019093750182E10E942202A3
:100F900021E0892B09F420E020937601211104C07F
:100FA0008DE191E00E94CC0282E10E942202892B15
:100FB000A9F40E94C0020091720110917301209166
:100FC000740130917501DC01CB01801B910BA20BE8
:100FD000B30B8E349140A105B10590F40E94F3014A
:100FE000F7CD0E94C00260937701709378018093DF
:100FF000790190937A0187E191E00E94CC029DCF24
:101000000E94C00260937201709373018093740117
:10101000909375018DE191E00E94CC02DFCFEE0F3D
:10102000FF1F0590F491E02D099481E090E0F89481
:101030000C948008F999FECF92BD81BDF89A99274A
:1010400080B50895262FF999FECF1FBA92BD81BDB4
:1010500020BD0FB6F894FA9AF99A0FBE019608953A
:10106000052E97FB1EF400940E94470857FD07D0F9
:101070000E944F0807FC03D04EF40C94470850958B
:101080004095309521953F4F4F4F5F4F0895909574
:101090008095709561957F4F8F4F9F4F0895A1E286
:1010A0001A2EAA1BBB1BFD010DC0AA1FBB1FEE1FE2
:1010B000FF1FA217B307E407F50720F0A21BB30B2D
:1010C000E40BF50B661F771F881F991F1A9469F7A9
:1010D00060957095809590959B01AC01BD01CF0105
:1010E0000895A29FB001B39FC001A39F700D811D01
:1010F0001124911DB29F700D811D1124911D089521
:04110000F894FFCF91
:1011040001000000000000005F01DB00280106016F
:101114001A01A6010D0A004C4546542100524947C4
:04112400485421000A
:00000001FF
